{
  "_format": "hh-sol-artifact-1",
  "contractName": "CreateStartUp",
  "sourceName": "contracts/CreateStartUp.sol",
  "abi": [
    {
      "inputs": [],
      "stateMutability": "nonpayable",
      "type": "constructor"
    },
    {
      "anonymous": false,
      "inputs": [
        {
          "indexed": true,
          "internalType": "address",
          "name": "from",
          "type": "address"
        },
        {
          "indexed": false,
          "internalType": "uint256",
          "name": "timestamp",
          "type": "uint256"
        },
        {
          "indexed": false,
          "internalType": "string",
          "name": "startUpName",
          "type": "string"
        },
        {
          "indexed": false,
          "internalType": "string",
          "name": "email",
          "type": "string"
        },
        {
          "indexed": false,
          "internalType": "string",
          "name": "discription",
          "type": "string"
        },
        {
          "indexed": false,
          "internalType": "string",
          "name": "fileURL",
          "type": "string"
        },
        {
          "indexed": false,
          "internalType": "uint256",
          "name": "totalETH",
          "type": "uint256"
        }
      ],
      "name": "createNewStartUp",
      "type": "event"
    },
    {
      "inputs": [
        {
          "internalType": "string",
          "name": "_startUpName",
          "type": "string"
        },
        {
          "internalType": "string",
          "name": "_email",
          "type": "string"
        },
        {
          "internalType": "string",
          "name": "_discription",
          "type": "string"
        },
        {
          "internalType": "string",
          "name": "_fileURL",
          "type": "string"
        },
        {
          "internalType": "uint256",
          "name": "_totalETH",
          "type": "uint256"
        }
      ],
      "name": "createstartup",
      "outputs": [],
      "stateMutability": "nonpayable",
      "type": "function"
    },
    {
      "inputs": [],
      "name": "getAllStartUp",
      "outputs": [
        {
          "components": [
            {
              "internalType": "address",
              "name": "creater",
              "type": "address"
            },
            {
              "internalType": "string",
              "name": "startUpName",
              "type": "string"
            },
            {
              "internalType": "string",
              "name": "email",
              "type": "string"
            },
            {
              "internalType": "string",
              "name": "discription",
              "type": "string"
            },
            {
              "internalType": "string",
              "name": "fileURL",
              "type": "string"
            },
            {
              "internalType": "uint256",
              "name": "totalETH",
              "type": "uint256"
            }
          ],
          "internalType": "struct CreateStartUp.StartUp[]",
          "name": "",
          "type": "tuple[]"
        }
      ],
      "stateMutability": "view",
      "type": "function"
    },
    {
      "inputs": [],
      "name": "getTotalStartUp",
      "outputs": [
        {
          "internalType": "uint256",
          "name": "",
          "type": "uint256"
        }
      ],
      "stateMutability": "view",
      "type": "function"
    }
  ],
  "bytecode": "0x60806040523480156200001157600080fd5b506200005d6040518060400160405280600781526020017f62757267697272000000000000000000000000000000000000000000000000008152506200006360201b620005e51760201c565b620001f7565b62000103816040516024016200007a919062000170565b6040516020818303038152906040527f41304fac000000000000000000000000000000000000000000000000000000007bffffffffffffffffffffffffffffffffffffffffffffffffffffffff19166020820180517bffffffffffffffffffffffffffffffffffffffffffffffffffffffff83818316178352505050506200010660201b60201c565b50565b60008151905060006a636f6e736f6c652e6c6f679050602083016000808483855afa5050505050565b60006200013c8262000194565b6200014881856200019f565b93506200015a818560208601620001b0565b6200016581620001e6565b840191505092915050565b600060208201905081810360008301526200018c81846200012f565b905092915050565b600081519050919050565b600082825260208201905092915050565b60005b83811015620001d0578082015181840152602081019050620001b3565b83811115620001e0576000848401525b50505050565b6000601f19601f8301169050919050565b61115e80620002076000396000f3fe608060405234801561001057600080fd5b50600436106100415760003560e01c80633f61b3bc1461004657806360756c5614610062578063ea57b09914610080575b600080fd5b610060600480360381019061005b91906109a7565b61009e565b005b61006a610293565b6040516100779190610d7b565b60405180910390f35b6100886102de565b6040516100959190610c53565b60405180910390f35b60016000808282546100b09190610ecf565b925050819055506100db6040518060800160405280604481526020016110bc6044913933878761067e565b6100ff60405180606001604052806029815260200161110060299139848484610720565b60016040518060c001604052803373ffffffffffffffffffffffffffffffffffffffff16815260200187815260200186815260200185815260200184815260200183815250908060018154018082558091505060019003906000526020600020906006020160009091909190915060008201518160000160006101000a81548173ffffffffffffffffffffffffffffffffffffffff021916908373ffffffffffffffffffffffffffffffffffffffff16021790555060208201518160010190805190602001906101d0929190610887565b5060408201518160020190805190602001906101ed929190610887565b50606082015181600301908051906020019061020a929190610887565b506080820151816004019080519060200190610227929190610887565b5060a0820151816005015550503373ffffffffffffffffffffffffffffffffffffffff167f4faf18c1cf6717e7703587a4396bec8e90f9eb2d9bd5ea1da2a9256b54e2dfe842878787878760405161028496959493929190610d96565b60405180910390a25050505050565b60006102d66040518060400160405280601981526020017f5765206861766520256420746f74616c205374617274557021000000000000008152506000546107c2565b600054905090565b60606001805480602002602001604051908101604052809291908181526020016000905b828210156105dc57838290600052602060002090600602016040518060c00160405290816000820160009054906101000a900473ffffffffffffffffffffffffffffffffffffffff1673ffffffffffffffffffffffffffffffffffffffff1673ffffffffffffffffffffffffffffffffffffffff16815260200160018201805461038b90610fa3565b80601f01602080910402602001604051908101604052809291908181526020018280546103b790610fa3565b80156104045780601f106103d957610100808354040283529160200191610404565b820191906000526020600020905b8154815290600101906020018083116103e757829003601f168201915b5050505050815260200160028201805461041d90610fa3565b80601f016020809104026020016040519081016040528092919081815260200182805461044990610fa3565b80156104965780601f1061046b57610100808354040283529160200191610496565b820191906000526020600020905b81548152906001019060200180831161047957829003601f168201915b505050505081526020016003820180546104af90610fa3565b80601f01602080910402602001604051908101604052809291908181526020018280546104db90610fa3565b80156105285780601f106104fd57610100808354040283529160200191610528565b820191906000526020600020905b81548152906001019060200180831161050b57829003601f168201915b5050505050815260200160048201805461054190610fa3565b80601f016020809104026020016040519081016040528092919081815260200182805461056d90610fa3565b80156105ba5780601f1061058f576101008083540402835291602001916105ba565b820191906000526020600020905b81548152906001019060200180831161059d57829003601f168201915b5050505050815260200160058201548152505081526020019060010190610302565b50505050905090565b61067b816040516024016105f99190610c75565b6040516020818303038152906040527f41304fac000000000000000000000000000000000000000000000000000000007bffffffffffffffffffffffffffffffffffffffffffffffffffffffff19166020820180517bffffffffffffffffffffffffffffffffffffffffffffffffffffffff838183161783525050505061085e565b50565b61071a848484846040516024016106989493929190610c97565b6040516020818303038152906040527f245986f2000000000000000000000000000000000000000000000000000000007bffffffffffffffffffffffffffffffffffffffffffffffffffffffff19166020820180517bffffffffffffffffffffffffffffffffffffffffffffffffffffffff838183161783525050505061085e565b50505050565b6107bc8484848460405160240161073a9493929190610cf1565b6040516020818303038152906040527f9fd009f5000000000000000000000000000000000000000000000000000000007bffffffffffffffffffffffffffffffffffffffffffffffffffffffff19166020820180517bffffffffffffffffffffffffffffffffffffffffffffffffffffffff838183161783525050505061085e565b50505050565b61085a82826040516024016107d8929190610d4b565b6040516020818303038152906040527f9710a9d0000000000000000000000000000000000000000000000000000000007bffffffffffffffffffffffffffffffffffffffffffffffffffffffff19166020820180517bffffffffffffffffffffffffffffffffffffffffffffffffffffffff838183161783525050505061085e565b5050565b60008151905060006a636f6e736f6c652e6c6f679050602083016000808483855afa5050505050565b82805461089390610fa3565b90600052602060002090601f0160209004810192826108b557600085556108fc565b82601f106108ce57805160ff19168380011785556108fc565b828001600101855582156108fc579182015b828111156108fb5782518255916020019190600101906108e0565b5b509050610909919061090d565b5090565b5b8082111561092657600081600090555060010161090e565b5090565b600061093d61093884610e38565b610e13565b90508281526020810184848401111561095557600080fd5b610960848285610f61565b509392505050565b600082601f83011261097957600080fd5b813561098984826020860161092a565b91505092915050565b6000813590506109a1816110a4565b92915050565b600080600080600060a086880312156109bf57600080fd5b600086013567ffffffffffffffff8111156109d957600080fd5b6109e588828901610968565b955050602086013567ffffffffffffffff811115610a0257600080fd5b610a0e88828901610968565b945050604086013567ffffffffffffffff811115610a2b57600080fd5b610a3788828901610968565b935050606086013567ffffffffffffffff811115610a5457600080fd5b610a6088828901610968565b9250506080610a7188828901610992565b9150509295509295909350565b6000610a8a8383610b97565b905092915050565b610a9b81610f25565b82525050565b610aaa81610f25565b82525050565b6000610abb82610e79565b610ac58185610e9c565b935083602082028501610ad785610e69565b8060005b85811015610b135784840389528151610af48582610a7e565b9450610aff83610e8f565b925060208a01995050600181019050610adb565b50829750879550505050505092915050565b6000610b3082610e84565b610b3a8185610ead565b9350610b4a818560208601610f70565b610b5381611093565b840191505092915050565b6000610b6982610e84565b610b738185610ebe565b9350610b83818560208601610f70565b610b8c81611093565b840191505092915050565b600060c083016000830151610baf6000860182610a92565b5060208301518482036020860152610bc78282610b25565b91505060408301518482036040860152610be18282610b25565b91505060608301518482036060860152610bfb8282610b25565b91505060808301518482036080860152610c158282610b25565b91505060a0830151610c2a60a0860182610c35565b508091505092915050565b610c3e81610f57565b82525050565b610c4d81610f57565b82525050565b60006020820190508181036000830152610c6d8184610ab0565b905092915050565b60006020820190508181036000830152610c8f8184610b5e565b905092915050565b60006080820190508181036000830152610cb18187610b5e565b9050610cc06020830186610aa1565b8181036040830152610cd28185610b5e565b90508181036060830152610ce68184610b5e565b905095945050505050565b60006080820190508181036000830152610d0b8187610b5e565b90508181036020830152610d1f8186610b5e565b90508181036040830152610d338185610b5e565b9050610d426060830184610c44565b95945050505050565b60006040820190508181036000830152610d658185610b5e565b9050610d746020830184610c44565b9392505050565b6000602082019050610d906000830184610c44565b92915050565b600060c082019050610dab6000830189610c44565b8181036020830152610dbd8188610b5e565b90508181036040830152610dd18187610b5e565b90508181036060830152610de58186610b5e565b90508181036080830152610df98185610b5e565b9050610e0860a0830184610c44565b979650505050505050565b6000610e1d610e2e565b9050610e298282610fd5565b919050565b6000604051905090565b600067ffffffffffffffff821115610e5357610e52611064565b5b610e5c82611093565b9050602081019050919050565b6000819050602082019050919050565b600081519050919050565b600081519050919050565b6000602082019050919050565b600082825260208201905092915050565b600082825260208201905092915050565b600082825260208201905092915050565b6000610eda82610f57565b9150610ee583610f57565b9250827fffffffffffffffffffffffffffffffffffffffffffffffffffffffffffffffff03821115610f1a57610f19611006565b5b828201905092915050565b6000610f3082610f37565b9050919050565b600073ffffffffffffffffffffffffffffffffffffffff82169050919050565b6000819050919050565b82818337600083830152505050565b60005b83811015610f8e578082015181840152602081019050610f73565b83811115610f9d576000848401525b50505050565b60006002820490506001821680610fbb57607f821691505b60208210811415610fcf57610fce611035565b5b50919050565b610fde82611093565b810181811067ffffffffffffffff82111715610ffd57610ffc611064565b5b80604052505050565b7f4e487b7100000000000000000000000000000000000000000000000000000000600052601160045260246000fd5b7f4e487b7100000000000000000000000000000000000000000000000000000000600052602260045260246000fd5b7f4e487b7100000000000000000000000000000000000000000000000000000000600052604160045260246000fd5b6000601f19601f8301169050919050565b6110ad81610f57565b81146110b857600080fd5b5056fe257320737461727455704e616d6520257320656d61696c202573206469736372697074696f6e2025642066696c6555524c20257320746f74616c455448202564204554486469736372697074696f6e2025642066696c6555524c20257320746f74616c45544820256420455448a2646970667358221220c77145b9d369545effe3e0ac5626c312a9fb883dbc1e230daf8337e6735f38ca64736f6c63430008040033",
  "linkReferences": {},
  "deployedLinkReferences": {}
}